{
  "_format": "hh-sol-artifact-1",
  "contractName": "Big3Marketplace",
  "sourceName": "contracts/Big3MarketPlace.sol",
  "abi": [
    {
      "inputs": [],
      "stateMutability": "nonpayable",
      "type": "constructor"
    },
    {
      "anonymous": false,
      "inputs": [
        {
          "indexed": true,
          "internalType": "address",
          "name": "owner",
          "type": "address"
        },
        {
          "indexed": true,
          "internalType": "address",
          "name": "approved",
          "type": "address"
        },
        {
          "indexed": true,
          "internalType": "uint256",
          "name": "tokenId",
          "type": "uint256"
        }
      ],
      "name": "Approval",
      "type": "event"
    },
    {
      "anonymous": false,
      "inputs": [
        {
          "indexed": true,
          "internalType": "address",
          "name": "owner",
          "type": "address"
        },
        {
          "indexed": true,
          "internalType": "address",
          "name": "operator",
          "type": "address"
        },
        {
          "indexed": false,
          "internalType": "bool",
          "name": "approved",
          "type": "bool"
        }
      ],
      "name": "ApprovalForAll",
      "type": "event"
    },
    {
      "anonymous": false,
      "inputs": [
        {
          "indexed": true,
          "internalType": "address",
          "name": "previousOwner",
          "type": "address"
        },
        {
          "indexed": true,
          "internalType": "address",
          "name": "newOwner",
          "type": "address"
        }
      ],
      "name": "OwnershipTransferred",
      "type": "event"
    },
    {
      "anonymous": false,
      "inputs": [
        {
          "indexed": true,
          "internalType": "address",
          "name": "from",
          "type": "address"
        },
        {
          "indexed": true,
          "internalType": "address",
          "name": "to",
          "type": "address"
        },
        {
          "indexed": true,
          "internalType": "uint256",
          "name": "tokenId",
          "type": "uint256"
        }
      ],
      "name": "Transfer",
      "type": "event"
    },
    {
      "inputs": [],
      "name": "_getPrice",
      "outputs": [
        {
          "internalType": "uint256",
          "name": "",
          "type": "uint256"
        }
      ],
      "stateMutability": "view",
      "type": "function"
    },
    {
      "inputs": [],
      "name": "_getSupply",
      "outputs": [
        {
          "internalType": "uint256",
          "name": "",
          "type": "uint256"
        }
      ],
      "stateMutability": "view",
      "type": "function"
    },
    {
      "inputs": [],
      "name": "_getTokenId",
      "outputs": [
        {
          "internalType": "uint256",
          "name": "",
          "type": "uint256"
        }
      ],
      "stateMutability": "view",
      "type": "function"
    },
    {
      "inputs": [
        {
          "internalType": "string",
          "name": "_newBaseURI",
          "type": "string"
        }
      ],
      "name": "_setBaseURI",
      "outputs": [],
      "stateMutability": "nonpayable",
      "type": "function"
    },
    {
      "inputs": [
        {
          "internalType": "uint256",
          "name": "_maxSupply",
          "type": "uint256"
        }
      ],
      "name": "_setMaxSupply",
      "outputs": [],
      "stateMutability": "nonpayable",
      "type": "function"
    },
    {
      "inputs": [
        {
          "internalType": "uint256",
          "name": "_price",
          "type": "uint256"
        }
      ],
      "name": "_setPrice",
      "outputs": [],
      "stateMutability": "nonpayable",
      "type": "function"
    },
    {
      "inputs": [
        {
          "internalType": "address",
          "name": "to",
          "type": "address"
        },
        {
          "internalType": "uint256",
          "name": "tokenId",
          "type": "uint256"
        }
      ],
      "name": "approve",
      "outputs": [],
      "stateMutability": "nonpayable",
      "type": "function"
    },
    {
      "inputs": [
        {
          "internalType": "address",
          "name": "owner",
          "type": "address"
        }
      ],
      "name": "balanceOf",
      "outputs": [
        {
          "internalType": "uint256",
          "name": "",
          "type": "uint256"
        }
      ],
      "stateMutability": "view",
      "type": "function"
    },
    {
      "inputs": [
        {
          "internalType": "uint256",
          "name": "tokenId",
          "type": "uint256"
        }
      ],
      "name": "getApproved",
      "outputs": [
        {
          "internalType": "address",
          "name": "",
          "type": "address"
        }
      ],
      "stateMutability": "view",
      "type": "function"
    },
    {
      "inputs": [
        {
          "internalType": "address",
          "name": "owner",
          "type": "address"
        },
        {
          "internalType": "address",
          "name": "operator",
          "type": "address"
        }
      ],
      "name": "isApprovedForAll",
      "outputs": [
        {
          "internalType": "bool",
          "name": "",
          "type": "bool"
        }
      ],
      "stateMutability": "view",
      "type": "function"
    },
    {
      "inputs": [
        {
          "internalType": "uint256",
          "name": "_nfttokenId",
          "type": "uint256"
        }
      ],
      "name": "list",
      "outputs": [],
      "stateMutability": "nonpayable",
      "type": "function"
    },
    {
      "inputs": [],
      "name": "maxSupply",
      "outputs": [
        {
          "internalType": "uint256",
          "name": "",
          "type": "uint256"
        }
      ],
      "stateMutability": "view",
      "type": "function"
    },
    {
      "inputs": [],
      "name": "mint",
      "outputs": [],
      "stateMutability": "nonpayable",
      "type": "function"
    },
    {
      "inputs": [],
      "name": "name",
      "outputs": [
        {
          "internalType": "string",
          "name": "",
          "type": "string"
        }
      ],
      "stateMutability": "view",
      "type": "function"
    },
    {
      "inputs": [],
      "name": "owner",
      "outputs": [
        {
          "internalType": "address",
          "name": "",
          "type": "address"
        }
      ],
      "stateMutability": "view",
      "type": "function"
    },
    {
      "inputs": [
        {
          "internalType": "uint256",
          "name": "tokenId",
          "type": "uint256"
        }
      ],
      "name": "ownerOf",
      "outputs": [
        {
          "internalType": "address",
          "name": "",
          "type": "address"
        }
      ],
      "stateMutability": "view",
      "type": "function"
    },
    {
      "inputs": [],
      "name": "price",
      "outputs": [
        {
          "internalType": "uint256",
          "name": "",
          "type": "uint256"
        }
      ],
      "stateMutability": "view",
      "type": "function"
    },
    {
      "inputs": [],
      "name": "renounceOwnership",
      "outputs": [],
      "stateMutability": "nonpayable",
      "type": "function"
    },
    {
      "inputs": [
        {
          "internalType": "address",
          "name": "from",
          "type": "address"
        },
        {
          "internalType": "address",
          "name": "to",
          "type": "address"
        },
        {
          "internalType": "uint256",
          "name": "tokenId",
          "type": "uint256"
        }
      ],
      "name": "safeTransferFrom",
      "outputs": [],
      "stateMutability": "nonpayable",
      "type": "function"
    },
    {
      "inputs": [
        {
          "internalType": "address",
          "name": "from",
          "type": "address"
        },
        {
          "internalType": "address",
          "name": "to",
          "type": "address"
        },
        {
          "internalType": "uint256",
          "name": "tokenId",
          "type": "uint256"
        },
        {
          "internalType": "bytes",
          "name": "data",
          "type": "bytes"
        }
      ],
      "name": "safeTransferFrom",
      "outputs": [],
      "stateMutability": "nonpayable",
      "type": "function"
    },
    {
      "inputs": [
        {
          "internalType": "address",
          "name": "operator",
          "type": "address"
        },
        {
          "internalType": "bool",
          "name": "approved",
          "type": "bool"
        }
      ],
      "name": "setApprovalForAll",
      "outputs": [],
      "stateMutability": "nonpayable",
      "type": "function"
    },
    {
      "inputs": [
        {
          "internalType": "bytes4",
          "name": "interfaceId",
          "type": "bytes4"
        }
      ],
      "name": "supportsInterface",
      "outputs": [
        {
          "internalType": "bool",
          "name": "",
          "type": "bool"
        }
      ],
      "stateMutability": "view",
      "type": "function"
    },
    {
      "inputs": [],
      "name": "symbol",
      "outputs": [
        {
          "internalType": "string",
          "name": "",
          "type": "string"
        }
      ],
      "stateMutability": "view",
      "type": "function"
    },
    {
      "inputs": [
        {
          "internalType": "uint256",
          "name": "tokenId",
          "type": "uint256"
        }
      ],
      "name": "tokenURI",
      "outputs": [
        {
          "internalType": "string",
          "name": "",
          "type": "string"
        }
      ],
      "stateMutability": "view",
      "type": "function"
    },
    {
      "inputs": [
        {
          "internalType": "address",
          "name": "from",
          "type": "address"
        },
        {
          "internalType": "address",
          "name": "to",
          "type": "address"
        },
        {
          "internalType": "uint256",
          "name": "tokenId",
          "type": "uint256"
        }
      ],
      "name": "transferFrom",
      "outputs": [],
      "stateMutability": "nonpayable",
      "type": "function"
    },
    {
      "inputs": [
        {
          "internalType": "address",
          "name": "newOwner",
          "type": "address"
        }
      ],
      "name": "transferOwnership",
      "outputs": [],
      "stateMutability": "nonpayable",
      "type": "function"
    }
  ],
  "bytecode": "0x60806040523480156200001157600080fd5b506040518060400160405280600881526020017f62696733204e46540000000000000000000000000000000000000000000000008152506040518060400160405280600281526020017f4233000000000000000000000000000000000000000000000000000000000000815250816000908051906020019062000096929190620001a6565b508060019080519060200190620000af929190620001a6565b505050620000d2620000c6620000d860201b60201c565b620000e060201b60201c565b620002bb565b600033905090565b6000600660009054906101000a900473ffffffffffffffffffffffffffffffffffffffff16905081600660006101000a81548173ffffffffffffffffffffffffffffffffffffffff021916908373ffffffffffffffffffffffffffffffffffffffff1602179055508173ffffffffffffffffffffffffffffffffffffffff168173ffffffffffffffffffffffffffffffffffffffff167f8be0079c531659141344cd1fd0a4f28419497f9722a3daafe3b4186f6b6457e060405160405180910390a35050565b828054620001b49062000285565b90600052602060002090601f016020900481019282620001d8576000855562000224565b82601f10620001f357805160ff191683800117855562000224565b8280016001018555821562000224579182015b828111156200022357825182559160200191906001019062000206565b5b50905062000233919062000237565b5090565b5b808211156200025257600081600090555060010162000238565b5090565b7f4e487b7100000000000000000000000000000000000000000000000000000000600052602260045260246000fd5b600060028204905060018216806200029e57607f821691505b60208210811415620002b557620002b462000256565b5b50919050565b612c5b80620002cb6000396000f3fe608060405234801561001057600080fd5b506004361061018e5760003560e01c806380c9419e116100de578063a22cb46511610097578063c87b56dd11610071578063c87b56dd14610435578063d5abeb0114610465578063e985e9c514610483578063f2fde38b146104b35761018e565b8063a22cb465146103e1578063b88d4fde146103fd578063c8001523146104195761018e565b806380c9419e1461032f578063824044e11461034b5780638da5cb5b1461036957806395d89b4114610387578063a035b1fe146103a5578063a19af1ad146103c35761018e565b806323b872dd1161014b5780636352211e116101255780636352211e146102a757806370a08231146102d7578063715018a61461030757806373340382146103115761018e565b806323b872dd1461025357806331b5b9071461026f57806342842e0e1461028b5761018e565b806301ffc9a71461019357806306fdde03146101c3578063081812fc146101e1578063095ea7b3146102115780630ea412ab1461022d5780631249c58b14610249575b600080fd5b6101ad60048036038101906101a89190611da2565b6104cf565b6040516101ba9190611dea565b60405180910390f35b6101cb6105b1565b6040516101d89190611e9e565b60405180910390f35b6101fb60048036038101906101f69190611ef6565b610643565b6040516102089190611f64565b60405180910390f35b61022b60048036038101906102269190611fab565b610689565b005b61024760048036038101906102429190611ef6565b6107a1565b005b6102516107b3565b005b61026d60048036038101906102689190611feb565b6107d8565b005b610289600480360381019061028491906120a3565b610838565b005b6102a560048036038101906102a09190611feb565b61084e565b005b6102c160048036038101906102bc9190611ef6565b61086e565b6040516102ce9190611f64565b60405180910390f35b6102f160048036038101906102ec91906120f0565b6108f5565b6040516102fe919061212c565b60405180910390f35b61030f6109ad565b005b6103196109c1565b604051610326919061212c565b60405180910390f35b61034960048036038101906103449190611ef6565b6109cb565b005b6103536109d8565b604051610360919061212c565b60405180910390f35b6103716109e9565b60405161037e9190611f64565b60405180910390f35b61038f610a13565b60405161039c9190611e9e565b60405180910390f35b6103ad610aa5565b6040516103ba919061212c565b60405180910390f35b6103cb610aab565b6040516103d8919061212c565b60405180910390f35b6103fb60048036038101906103f69190612173565b610ab5565b005b610417600480360381019061041291906122e3565b610acb565b005b610433600480360381019061042e9190611ef6565b610b2d565b005b61044f600480360381019061044a9190611ef6565b610b3f565b60405161045c9190611e9e565b60405180910390f35b61046d610ba7565b60405161047a919061212c565b60405180910390f35b61049d60048036038101906104989190612366565b610bad565b6040516104aa9190611dea565b60405180910390f35b6104cd60048036038101906104c891906120f0565b610c41565b005b60007f80ac58cd000000000000000000000000000000000000000000000000000000007bffffffffffffffffffffffffffffffffffffffffffffffffffffffff1916827bffffffffffffffffffffffffffffffffffffffffffffffffffffffff1916148061059a57507f5b5e139f000000000000000000000000000000000000000000000000000000007bffffffffffffffffffffffffffffffffffffffffffffffffffffffff1916827bffffffffffffffffffffffffffffffffffffffffffffffffffffffff1916145b806105aa57506105a982610cc5565b5b9050919050565b6060600080546105c0906123d5565b80601f01602080910402602001604051908101604052809291908181526020018280546105ec906123d5565b80156106395780601f1061060e57610100808354040283529160200191610639565b820191906000526020600020905b81548152906001019060200180831161061c57829003601f168201915b5050505050905090565b600061064e82610d2f565b6004600083815260200190815260200160002060009054906101000a900473ffffffffffffffffffffffffffffffffffffffff169050919050565b60006106948261086e565b90508073ffffffffffffffffffffffffffffffffffffffff168373ffffffffffffffffffffffffffffffffffffffff161415610705576040517f08c379a00000000000000000000000000000000000000000000000000000000081526004016106fc90612479565b60405180910390fd5b8073ffffffffffffffffffffffffffffffffffffffff16610724610d7a565b73ffffffffffffffffffffffffffffffffffffffff16148061075357506107528161074d610d7a565b610bad565b5b610792576040517f08c379a00000000000000000000000000000000000000000000000000000000081526004016107899061250b565b60405180910390fd5b61079c8383610d82565b505050565b6107a9610e3b565b8060078190555050565b6107bd600a610eb9565b60006107c9600a610ecf565b90506107d53382610edd565b50565b6107e96107e3610d7a565b82610efb565b610828576040517f08c379a000000000000000000000000000000000000000000000000000000000815260040161081f9061259d565b60405180910390fd5b610833838383610f90565b505050565b818160099190610849929190611c93565b505050565b61086983838360405180602001604052806000815250610acb565b505050565b60008061087a8361128a565b9050600073ffffffffffffffffffffffffffffffffffffffff168173ffffffffffffffffffffffffffffffffffffffff1614156108ec576040517f08c379a00000000000000000000000000000000000000000000000000000000081526004016108e390612609565b60405180910390fd5b80915050919050565b60008073ffffffffffffffffffffffffffffffffffffffff168273ffffffffffffffffffffffffffffffffffffffff161415610966576040517f08c379a000000000000000000000000000000000000000000000000000000000815260040161095d9061269b565b60405180910390fd5b600360008373ffffffffffffffffffffffffffffffffffffffff1673ffffffffffffffffffffffffffffffffffffffff168152602001908152602001600020549050919050565b6109b5610e3b565b6109bf60006112c7565b565b6000600854905090565b6109d53082610689565b50565b60006109e4600a610ecf565b905090565b6000600660009054906101000a900473ffffffffffffffffffffffffffffffffffffffff16905090565b606060018054610a22906123d5565b80601f0160208091040260200160405190810160405280929190818152602001828054610a4e906123d5565b8015610a9b5780601f10610a7057610100808354040283529160200191610a9b565b820191906000526020600020905b815481529060010190602001808311610a7e57829003601f168201915b5050505050905090565b60075481565b6000600754905090565b610ac7610ac0610d7a565b838361138d565b5050565b610adc610ad6610d7a565b83610efb565b610b1b576040517f08c379a0000000000000000000000000000000000000000000000000000000008152600401610b129061259d565b60405180910390fd5b610b27848484846114fa565b50505050565b610b35610e3b565b8060088190555050565b6060610b4a82610d2f565b6000610b54611556565b90506000815111610b745760405180602001604052806000815250610b9f565b80610b7e846115e8565b604051602001610b8f9291906126f7565b6040516020818303038152906040525b915050919050565b60085481565b6000600560008473ffffffffffffffffffffffffffffffffffffffff1673ffffffffffffffffffffffffffffffffffffffff16815260200190815260200160002060008373ffffffffffffffffffffffffffffffffffffffff1673ffffffffffffffffffffffffffffffffffffffff16815260200190815260200160002060009054906101000a900460ff16905092915050565b610c49610e3b565b600073ffffffffffffffffffffffffffffffffffffffff168173ffffffffffffffffffffffffffffffffffffffff161415610cb9576040517f08c379a0000000000000000000000000000000000000000000000000000000008152600401610cb09061278d565b60405180910390fd5b610cc2816112c7565b50565b60007f01ffc9a7000000000000000000000000000000000000000000000000000000007bffffffffffffffffffffffffffffffffffffffffffffffffffffffff1916827bffffffffffffffffffffffffffffffffffffffffffffffffffffffff1916149050919050565b610d38816116c0565b610d77576040517f08c379a0000000000000000000000000000000000000000000000000000000008152600401610d6e90612609565b60405180910390fd5b50565b600033905090565b816004600083815260200190815260200160002060006101000a81548173ffffffffffffffffffffffffffffffffffffffff021916908373ffffffffffffffffffffffffffffffffffffffff160217905550808273ffffffffffffffffffffffffffffffffffffffff16610df58361086e565b73ffffffffffffffffffffffffffffffffffffffff167f8c5be1e5ebec7d5bd14f71427d1e84f3dd0314c0f7b2291e5b200ac8c7c3b92560405160405180910390a45050565b610e43610d7a565b73ffffffffffffffffffffffffffffffffffffffff16610e616109e9565b73ffffffffffffffffffffffffffffffffffffffff1614610eb7576040517f08c379a0000000000000000000000000000000000000000000000000000000008152600401610eae906127f9565b60405180910390fd5b565b6001816000016000828254019250508190555050565b600081600001549050919050565b610ef7828260405180602001604052806000815250611701565b5050565b600080610f078361086e565b90508073ffffffffffffffffffffffffffffffffffffffff168473ffffffffffffffffffffffffffffffffffffffff161480610f495750610f488185610bad565b5b80610f8757508373ffffffffffffffffffffffffffffffffffffffff16610f6f84610643565b73ffffffffffffffffffffffffffffffffffffffff16145b91505092915050565b8273ffffffffffffffffffffffffffffffffffffffff16610fb08261086e565b73ffffffffffffffffffffffffffffffffffffffff1614611006576040517f08c379a0000000000000000000000000000000000000000000000000000000008152600401610ffd9061288b565b60405180910390fd5b600073ffffffffffffffffffffffffffffffffffffffff168273ffffffffffffffffffffffffffffffffffffffff161415611076576040517f08c379a000000000000000000000000000000000000000000000000000000000815260040161106d9061291d565b60405180910390fd5b611083838383600161175c565b8273ffffffffffffffffffffffffffffffffffffffff166110a38261086e565b73ffffffffffffffffffffffffffffffffffffffff16146110f9576040517f08c379a00000000000000000000000000000000000000000000000000000000081526004016110f09061288b565b60405180910390fd5b6004600082815260200190815260200160002060006101000a81549073ffffffffffffffffffffffffffffffffffffffff02191690556001600360008573ffffffffffffffffffffffffffffffffffffffff1673ffffffffffffffffffffffffffffffffffffffff168152602001908152602001600020600082825403925050819055506001600360008473ffffffffffffffffffffffffffffffffffffffff1673ffffffffffffffffffffffffffffffffffffffff16815260200190815260200160002060008282540192505081905550816002600083815260200190815260200160002060006101000a81548173ffffffffffffffffffffffffffffffffffffffff021916908373ffffffffffffffffffffffffffffffffffffffff160217905550808273ffffffffffffffffffffffffffffffffffffffff168473ffffffffffffffffffffffffffffffffffffffff167fddf252ad1be2c89b69c2b068fc378daa952ba7f163c4a11628f55a4df523b3ef60405160405180910390a46112858383836001611762565b505050565b60006002600083815260200190815260200160002060009054906101000a900473ffffffffffffffffffffffffffffffffffffffff169050919050565b6000600660009054906101000a900473ffffffffffffffffffffffffffffffffffffffff16905081600660006101000a81548173ffffffffffffffffffffffffffffffffffffffff021916908373ffffffffffffffffffffffffffffffffffffffff1602179055508173ffffffffffffffffffffffffffffffffffffffff168173ffffffffffffffffffffffffffffffffffffffff167f8be0079c531659141344cd1fd0a4f28419497f9722a3daafe3b4186f6b6457e060405160405180910390a35050565b8173ffffffffffffffffffffffffffffffffffffffff168373ffffffffffffffffffffffffffffffffffffffff1614156113fc576040517f08c379a00000000000000000000000000000000000000000000000000000000081526004016113f390612989565b60405180910390fd5b80600560008573ffffffffffffffffffffffffffffffffffffffff1673ffffffffffffffffffffffffffffffffffffffff16815260200190815260200160002060008473ffffffffffffffffffffffffffffffffffffffff1673ffffffffffffffffffffffffffffffffffffffff16815260200190815260200160002060006101000a81548160ff0219169083151502179055508173ffffffffffffffffffffffffffffffffffffffff168373ffffffffffffffffffffffffffffffffffffffff167f17307eab39ab6107e8899845ad3d59bd9653f200f220920489ca2b5937696c31836040516114ed9190611dea565b60405180910390a3505050565b611505848484610f90565b61151184848484611768565b611550576040517f08c379a000000000000000000000000000000000000000000000000000000000815260040161154790612a1b565b60405180910390fd5b50505050565b606060098054611565906123d5565b80601f0160208091040260200160405190810160405280929190818152602001828054611591906123d5565b80156115de5780601f106115b3576101008083540402835291602001916115de565b820191906000526020600020905b8154815290600101906020018083116115c157829003601f168201915b5050505050905090565b6060600060016115f7846118ff565b01905060008167ffffffffffffffff811115611616576116156121b8565b5b6040519080825280601f01601f1916602001820160405280156116485781602001600182028036833780820191505090505b509050600082602001820190505b6001156116b5578080600190039150507f3031323334353637383961626364656600000000000000000000000000000000600a86061a8153600a858161169f5761169e612a3b565b5b04945060008514156116b0576116b5565b611656565b819350505050919050565b60008073ffffffffffffffffffffffffffffffffffffffff166116e28361128a565b73ffffffffffffffffffffffffffffffffffffffff1614159050919050565b61170b8383611a52565b6117186000848484611768565b611757576040517f08c379a000000000000000000000000000000000000000000000000000000000815260040161174e90612a1b565b60405180910390fd5b505050565b50505050565b50505050565b60006117898473ffffffffffffffffffffffffffffffffffffffff16611c70565b156118f2578373ffffffffffffffffffffffffffffffffffffffff1663150b7a026117b2610d7a565b8786866040518563ffffffff1660e01b81526004016117d49493929190612abf565b602060405180830381600087803b1580156117ee57600080fd5b505af192505050801561181f57506040513d601f19601f8201168201806040525081019061181c9190612b20565b60015b6118a2573d806000811461184f576040519150601f19603f3d011682016040523d82523d6000602084013e611854565b606091505b5060008151141561189a576040517f08c379a000000000000000000000000000000000000000000000000000000000815260040161189190612a1b565b60405180910390fd5b805181602001fd5b63150b7a0260e01b7bffffffffffffffffffffffffffffffffffffffffffffffffffffffff1916817bffffffffffffffffffffffffffffffffffffffffffffffffffffffff1916149150506118f7565b600190505b949350505050565b600080600090507a184f03e93ff9f4daa797ed6e38ed64bf6a1f010000000000000000831061195d577a184f03e93ff9f4daa797ed6e38ed64bf6a1f010000000000000000838161195357611952612a3b565b5b0492506040810190505b6d04ee2d6d415b85acef8100000000831061199a576d04ee2d6d415b85acef810000000083816119905761198f612a3b565b5b0492506020810190505b662386f26fc1000083106119c957662386f26fc1000083816119bf576119be612a3b565b5b0492506010810190505b6305f5e10083106119f2576305f5e10083816119e8576119e7612a3b565b5b0492506008810190505b6127108310611a17576127108381611a0d57611a0c612a3b565b5b0492506004810190505b60648310611a3a5760648381611a3057611a2f612a3b565b5b0492506002810190505b600a8310611a49576001810190505b80915050919050565b600073ffffffffffffffffffffffffffffffffffffffff168273ffffffffffffffffffffffffffffffffffffffff161415611ac2576040517f08c379a0000000000000000000000000000000000000000000000000000000008152600401611ab990612b99565b60405180910390fd5b611acb816116c0565b15611b0b576040517f08c379a0000000000000000000000000000000000000000000000000000000008152600401611b0290612c05565b60405180910390fd5b611b1960008383600161175c565b611b22816116c0565b15611b62576040517f08c379a0000000000000000000000000000000000000000000000000000000008152600401611b5990612c05565b60405180910390fd5b6001600360008473ffffffffffffffffffffffffffffffffffffffff1673ffffffffffffffffffffffffffffffffffffffff16815260200190815260200160002060008282540192505081905550816002600083815260200190815260200160002060006101000a81548173ffffffffffffffffffffffffffffffffffffffff021916908373ffffffffffffffffffffffffffffffffffffffff160217905550808273ffffffffffffffffffffffffffffffffffffffff16600073ffffffffffffffffffffffffffffffffffffffff167fddf252ad1be2c89b69c2b068fc378daa952ba7f163c4a11628f55a4df523b3ef60405160405180910390a4611c6c600083836001611762565b5050565b6000808273ffffffffffffffffffffffffffffffffffffffff163b119050919050565b828054611c9f906123d5565b90600052602060002090601f016020900481019282611cc15760008555611d08565b82601f10611cda57803560ff1916838001178555611d08565b82800160010185558215611d08579182015b82811115611d07578235825591602001919060010190611cec565b5b509050611d159190611d19565b5090565b5b80821115611d32576000816000905550600101611d1a565b5090565b6000604051905090565b600080fd5b600080fd5b60007fffffffff0000000000000000000000000000000000000000000000000000000082169050919050565b611d7f81611d4a565b8114611d8a57600080fd5b50565b600081359050611d9c81611d76565b92915050565b600060208284031215611db857611db7611d40565b5b6000611dc684828501611d8d565b91505092915050565b60008115159050919050565b611de481611dcf565b82525050565b6000602082019050611dff6000830184611ddb565b92915050565b600081519050919050565b600082825260208201905092915050565b60005b83811015611e3f578082015181840152602081019050611e24565b83811115611e4e576000848401525b50505050565b6000601f19601f8301169050919050565b6000611e7082611e05565b611e7a8185611e10565b9350611e8a818560208601611e21565b611e9381611e54565b840191505092915050565b60006020820190508181036000830152611eb88184611e65565b905092915050565b6000819050919050565b611ed381611ec0565b8114611ede57600080fd5b50565b600081359050611ef081611eca565b92915050565b600060208284031215611f0c57611f0b611d40565b5b6000611f1a84828501611ee1565b91505092915050565b600073ffffffffffffffffffffffffffffffffffffffff82169050919050565b6000611f4e82611f23565b9050919050565b611f5e81611f43565b82525050565b6000602082019050611f796000830184611f55565b92915050565b611f8881611f43565b8114611f9357600080fd5b50565b600081359050611fa581611f7f565b92915050565b60008060408385031215611fc257611fc1611d40565b5b6000611fd085828601611f96565b9250506020611fe185828601611ee1565b9150509250929050565b60008060006060848603121561200457612003611d40565b5b600061201286828701611f96565b935050602061202386828701611f96565b925050604061203486828701611ee1565b9150509250925092565b600080fd5b600080fd5b600080fd5b60008083601f8401126120635761206261203e565b5b8235905067ffffffffffffffff8111156120805761207f612043565b5b60208301915083600182028301111561209c5761209b612048565b5b9250929050565b600080602083850312156120ba576120b9611d40565b5b600083013567ffffffffffffffff8111156120d8576120d7611d45565b5b6120e48582860161204d565b92509250509250929050565b60006020828403121561210657612105611d40565b5b600061211484828501611f96565b91505092915050565b61212681611ec0565b82525050565b6000602082019050612141600083018461211d565b92915050565b61215081611dcf565b811461215b57600080fd5b50565b60008135905061216d81612147565b92915050565b6000806040838503121561218a57612189611d40565b5b600061219885828601611f96565b92505060206121a98582860161215e565b9150509250929050565b600080fd5b7f4e487b7100000000000000000000000000000000000000000000000000000000600052604160045260246000fd5b6121f082611e54565b810181811067ffffffffffffffff8211171561220f5761220e6121b8565b5b80604052505050565b6000612222611d36565b905061222e82826121e7565b919050565b600067ffffffffffffffff82111561224e5761224d6121b8565b5b61225782611e54565b9050602081019050919050565b82818337600083830152505050565b600061228661228184612233565b612218565b9050828152602081018484840111156122a2576122a16121b3565b5b6122ad848285612264565b509392505050565b600082601f8301126122ca576122c961203e565b5b81356122da848260208601612273565b91505092915050565b600080600080608085870312156122fd576122fc611d40565b5b600061230b87828801611f96565b945050602061231c87828801611f96565b935050604061232d87828801611ee1565b925050606085013567ffffffffffffffff81111561234e5761234d611d45565b5b61235a878288016122b5565b91505092959194509250565b6000806040838503121561237d5761237c611d40565b5b600061238b85828601611f96565b925050602061239c85828601611f96565b9150509250929050565b7f4e487b7100000000000000000000000000000000000000000000000000000000600052602260045260246000fd5b600060028204905060018216806123ed57607f821691505b60208210811415612401576124006123a6565b5b50919050565b7f4552433732313a20617070726f76616c20746f2063757272656e74206f776e6560008201527f7200000000000000000000000000000000000000000000000000000000000000602082015250565b6000612463602183611e10565b915061246e82612407565b604082019050919050565b6000602082019050818103600083015261249281612456565b9050919050565b7f4552433732313a20617070726f76652063616c6c6572206973206e6f7420746f60008201527f6b656e206f776e6572206f7220617070726f76656420666f7220616c6c000000602082015250565b60006124f5603d83611e10565b915061250082612499565b604082019050919050565b60006020820190508181036000830152612524816124e8565b9050919050565b7f4552433732313a2063616c6c6572206973206e6f7420746f6b656e206f776e6560008201527f72206f7220617070726f76656400000000000000000000000000000000000000602082015250565b6000612587602d83611e10565b91506125928261252b565b604082019050919050565b600060208201905081810360008301526125b68161257a565b9050919050565b7f4552433732313a20696e76616c696420746f6b656e2049440000000000000000600082015250565b60006125f3601883611e10565b91506125fe826125bd565b602082019050919050565b60006020820190508181036000830152612622816125e6565b9050919050565b7f4552433732313a2061646472657373207a65726f206973206e6f74206120766160008201527f6c6964206f776e65720000000000000000000000000000000000000000000000602082015250565b6000612685602983611e10565b915061269082612629565b604082019050919050565b600060208201905081810360008301526126b481612678565b9050919050565b600081905092915050565b60006126d182611e05565b6126db81856126bb565b93506126eb818560208601611e21565b80840191505092915050565b600061270382856126c6565b915061270f82846126c6565b91508190509392505050565b7f4f776e61626c653a206e6577206f776e657220697320746865207a65726f206160008201527f6464726573730000000000000000000000000000000000000000000000000000602082015250565b6000612777602683611e10565b91506127828261271b565b604082019050919050565b600060208201905081810360008301526127a68161276a565b9050919050565b7f4f776e61626c653a2063616c6c6572206973206e6f7420746865206f776e6572600082015250565b60006127e3602083611e10565b91506127ee826127ad565b602082019050919050565b60006020820190508181036000830152612812816127d6565b9050919050565b7f4552433732313a207472616e736665722066726f6d20696e636f72726563742060008201527f6f776e6572000000000000000000000000000000000000000000000000000000602082015250565b6000612875602583611e10565b915061288082612819565b604082019050919050565b600060208201905081810360008301526128a481612868565b9050919050565b7f4552433732313a207472616e7366657220746f20746865207a65726f2061646460008201527f7265737300000000000000000000000000000000000000000000000000000000602082015250565b6000612907602483611e10565b9150612912826128ab565b604082019050919050565b60006020820190508181036000830152612936816128fa565b9050919050565b7f4552433732313a20617070726f766520746f2063616c6c657200000000000000600082015250565b6000612973601983611e10565b915061297e8261293d565b602082019050919050565b600060208201905081810360008301526129a281612966565b9050919050565b7f4552433732313a207472616e7366657220746f206e6f6e20455243373231526560008201527f63656976657220696d706c656d656e7465720000000000000000000000000000602082015250565b6000612a05603283611e10565b9150612a10826129a9565b604082019050919050565b60006020820190508181036000830152612a34816129f8565b9050919050565b7f4e487b7100000000000000000000000000000000000000000000000000000000600052601260045260246000fd5b600081519050919050565b600082825260208201905092915050565b6000612a9182612a6a565b612a9b8185612a75565b9350612aab818560208601611e21565b612ab481611e54565b840191505092915050565b6000608082019050612ad46000830187611f55565b612ae16020830186611f55565b612aee604083018561211d565b8181036060830152612b008184612a86565b905095945050505050565b600081519050612b1a81611d76565b92915050565b600060208284031215612b3657612b35611d40565b5b6000612b4484828501612b0b565b91505092915050565b7f4552433732313a206d696e7420746f20746865207a65726f2061646472657373600082015250565b6000612b83602083611e10565b9150612b8e82612b4d565b602082019050919050565b60006020820190508181036000830152612bb281612b76565b9050919050565b7f4552433732313a20746f6b656e20616c7265616479206d696e74656400000000600082015250565b6000612bef601c83611e10565b9150612bfa82612bb9565b602082019050919050565b60006020820190508181036000830152612c1e81612be2565b905091905056fea26469706673582212200247395ebad09a521a2029d3fd53fa7755dce8837dc056c114079d66eadd15c664736f6c63430008090033",
  "linkReferences": {},
  "deployedLinkReferences": {}
}