{
  "_format": "hh-sol-artifact-1",
  "contractName": "Big3Marketplace",
  "sourceName": "contracts/Big3MarketPlace.sol",
  "abi": [
    {
      "inputs": [],
      "stateMutability": "nonpayable",
      "type": "constructor"
    },
    {
      "anonymous": false,
      "inputs": [
        {
          "indexed": true,
          "internalType": "address",
          "name": "owner",
          "type": "address"
        },
        {
          "indexed": true,
          "internalType": "address",
          "name": "approved",
          "type": "address"
        },
        {
          "indexed": true,
          "internalType": "uint256",
          "name": "tokenId",
          "type": "uint256"
        }
      ],
      "name": "Approval",
      "type": "event"
    },
    {
      "anonymous": false,
      "inputs": [
        {
          "indexed": true,
          "internalType": "address",
          "name": "owner",
          "type": "address"
        },
        {
          "indexed": true,
          "internalType": "address",
          "name": "operator",
          "type": "address"
        },
        {
          "indexed": false,
          "internalType": "bool",
          "name": "approved",
          "type": "bool"
        }
      ],
      "name": "ApprovalForAll",
      "type": "event"
    },
    {
      "anonymous": false,
      "inputs": [
        {
          "indexed": true,
          "internalType": "address",
          "name": "previousOwner",
          "type": "address"
        },
        {
          "indexed": true,
          "internalType": "address",
          "name": "newOwner",
          "type": "address"
        }
      ],
      "name": "OwnershipTransferred",
      "type": "event"
    },
    {
      "anonymous": false,
      "inputs": [
        {
          "indexed": true,
          "internalType": "address",
          "name": "from",
          "type": "address"
        },
        {
          "indexed": true,
          "internalType": "address",
          "name": "to",
          "type": "address"
        },
        {
          "indexed": true,
          "internalType": "uint256",
          "name": "tokenId",
          "type": "uint256"
        }
      ],
      "name": "Transfer",
      "type": "event"
    },
    {
      "inputs": [],
      "name": "_getPrice",
      "outputs": [
        {
          "internalType": "uint256",
          "name": "",
          "type": "uint256"
        }
      ],
      "stateMutability": "view",
      "type": "function"
    },
    {
      "inputs": [],
      "name": "_getSupply",
      "outputs": [
        {
          "internalType": "uint256",
          "name": "",
          "type": "uint256"
        }
      ],
      "stateMutability": "view",
      "type": "function"
    },
    {
      "inputs": [],
      "name": "_getTokenId",
      "outputs": [
        {
          "internalType": "uint256",
          "name": "",
          "type": "uint256"
        }
      ],
      "stateMutability": "view",
      "type": "function"
    },
    {
      "inputs": [
        {
          "internalType": "uint256",
          "name": "tokenId",
          "type": "uint256"
        }
      ],
      "name": "_getTokenIdName",
      "outputs": [
        {
          "internalType": "string",
          "name": "",
          "type": "string"
        }
      ],
      "stateMutability": "view",
      "type": "function"
    },
    {
      "inputs": [
        {
          "internalType": "string",
          "name": "_newBaseURI",
          "type": "string"
        }
      ],
      "name": "_setBaseURI",
      "outputs": [],
      "stateMutability": "nonpayable",
      "type": "function"
    },
    {
      "inputs": [
        {
          "internalType": "uint256",
          "name": "_maxSupply",
          "type": "uint256"
        }
      ],
      "name": "_setMaxSupply",
      "outputs": [],
      "stateMutability": "nonpayable",
      "type": "function"
    },
    {
      "inputs": [
        {
          "internalType": "uint256",
          "name": "_price",
          "type": "uint256"
        }
      ],
      "name": "_setPrice",
      "outputs": [],
      "stateMutability": "nonpayable",
      "type": "function"
    },
    {
      "inputs": [
        {
          "internalType": "uint256",
          "name": "",
          "type": "uint256"
        }
      ],
      "name": "_tokenIdName",
      "outputs": [
        {
          "internalType": "string",
          "name": "",
          "type": "string"
        }
      ],
      "stateMutability": "view",
      "type": "function"
    },
    {
      "inputs": [
        {
          "internalType": "address",
          "name": "to",
          "type": "address"
        },
        {
          "internalType": "uint256",
          "name": "tokenId",
          "type": "uint256"
        }
      ],
      "name": "approve",
      "outputs": [],
      "stateMutability": "nonpayable",
      "type": "function"
    },
    {
      "inputs": [
        {
          "internalType": "address",
          "name": "owner",
          "type": "address"
        }
      ],
      "name": "balanceOf",
      "outputs": [
        {
          "internalType": "uint256",
          "name": "",
          "type": "uint256"
        }
      ],
      "stateMutability": "view",
      "type": "function"
    },
    {
      "inputs": [
        {
          "internalType": "uint256",
          "name": "tokenId",
          "type": "uint256"
        }
      ],
      "name": "getApproved",
      "outputs": [
        {
          "internalType": "address",
          "name": "",
          "type": "address"
        }
      ],
      "stateMutability": "view",
      "type": "function"
    },
    {
      "inputs": [
        {
          "internalType": "address",
          "name": "owner",
          "type": "address"
        },
        {
          "internalType": "address",
          "name": "operator",
          "type": "address"
        }
      ],
      "name": "isApprovedForAll",
      "outputs": [
        {
          "internalType": "bool",
          "name": "",
          "type": "bool"
        }
      ],
      "stateMutability": "view",
      "type": "function"
    },
    {
      "inputs": [
        {
          "internalType": "uint256",
          "name": "_nfttokenId",
          "type": "uint256"
        }
      ],
      "name": "list",
      "outputs": [],
      "stateMutability": "nonpayable",
      "type": "function"
    },
    {
      "inputs": [],
      "name": "maxSupply",
      "outputs": [
        {
          "internalType": "uint256",
          "name": "",
          "type": "uint256"
        }
      ],
      "stateMutability": "view",
      "type": "function"
    },
    {
      "inputs": [
        {
          "internalType": "string",
          "name": "_name",
          "type": "string"
        }
      ],
      "name": "mint",
      "outputs": [],
      "stateMutability": "nonpayable",
      "type": "function"
    },
    {
      "inputs": [],
      "name": "name",
      "outputs": [
        {
          "internalType": "string",
          "name": "",
          "type": "string"
        }
      ],
      "stateMutability": "view",
      "type": "function"
    },
    {
      "inputs": [],
      "name": "owner",
      "outputs": [
        {
          "internalType": "address",
          "name": "",
          "type": "address"
        }
      ],
      "stateMutability": "view",
      "type": "function"
    },
    {
      "inputs": [
        {
          "internalType": "uint256",
          "name": "tokenId",
          "type": "uint256"
        }
      ],
      "name": "ownerOf",
      "outputs": [
        {
          "internalType": "address",
          "name": "",
          "type": "address"
        }
      ],
      "stateMutability": "view",
      "type": "function"
    },
    {
      "inputs": [],
      "name": "price",
      "outputs": [
        {
          "internalType": "uint256",
          "name": "",
          "type": "uint256"
        }
      ],
      "stateMutability": "view",
      "type": "function"
    },
    {
      "inputs": [],
      "name": "renounceOwnership",
      "outputs": [],
      "stateMutability": "nonpayable",
      "type": "function"
    },
    {
      "inputs": [
        {
          "internalType": "address",
          "name": "from",
          "type": "address"
        },
        {
          "internalType": "address",
          "name": "to",
          "type": "address"
        },
        {
          "internalType": "uint256",
          "name": "tokenId",
          "type": "uint256"
        }
      ],
      "name": "safeTransferFrom",
      "outputs": [],
      "stateMutability": "nonpayable",
      "type": "function"
    },
    {
      "inputs": [
        {
          "internalType": "address",
          "name": "from",
          "type": "address"
        },
        {
          "internalType": "address",
          "name": "to",
          "type": "address"
        },
        {
          "internalType": "uint256",
          "name": "tokenId",
          "type": "uint256"
        },
        {
          "internalType": "bytes",
          "name": "data",
          "type": "bytes"
        }
      ],
      "name": "safeTransferFrom",
      "outputs": [],
      "stateMutability": "nonpayable",
      "type": "function"
    },
    {
      "inputs": [
        {
          "internalType": "address",
          "name": "operator",
          "type": "address"
        },
        {
          "internalType": "bool",
          "name": "approved",
          "type": "bool"
        }
      ],
      "name": "setApprovalForAll",
      "outputs": [],
      "stateMutability": "nonpayable",
      "type": "function"
    },
    {
      "inputs": [
        {
          "internalType": "bytes4",
          "name": "interfaceId",
          "type": "bytes4"
        }
      ],
      "name": "supportsInterface",
      "outputs": [
        {
          "internalType": "bool",
          "name": "",
          "type": "bool"
        }
      ],
      "stateMutability": "view",
      "type": "function"
    },
    {
      "inputs": [],
      "name": "symbol",
      "outputs": [
        {
          "internalType": "string",
          "name": "",
          "type": "string"
        }
      ],
      "stateMutability": "view",
      "type": "function"
    },
    {
      "inputs": [
        {
          "internalType": "uint256",
          "name": "tokenId",
          "type": "uint256"
        }
      ],
      "name": "tokenURI",
      "outputs": [
        {
          "internalType": "string",
          "name": "",
          "type": "string"
        }
      ],
      "stateMutability": "view",
      "type": "function"
    },
    {
      "inputs": [
        {
          "internalType": "address",
          "name": "from",
          "type": "address"
        },
        {
          "internalType": "address",
          "name": "to",
          "type": "address"
        },
        {
          "internalType": "uint256",
          "name": "tokenId",
          "type": "uint256"
        }
      ],
      "name": "transferFrom",
      "outputs": [],
      "stateMutability": "nonpayable",
      "type": "function"
    },
    {
      "inputs": [
        {
          "internalType": "address",
          "name": "newOwner",
          "type": "address"
        }
      ],
      "name": "transferOwnership",
      "outputs": [],
      "stateMutability": "nonpayable",
      "type": "function"
    }
  ],
  "bytecode": "0x60806040523480156200001157600080fd5b506040518060400160405280600881526020017f62696733204e46540000000000000000000000000000000000000000000000008152506040518060400160405280600281526020017f4233000000000000000000000000000000000000000000000000000000000000815250816000908051906020019062000096929190620001a6565b508060019080519060200190620000af929190620001a6565b505050620000d2620000c6620000d860201b60201c565b620000e060201b60201c565b620002bb565b600033905090565b6000600660009054906101000a900473ffffffffffffffffffffffffffffffffffffffff16905081600660006101000a81548173ffffffffffffffffffffffffffffffffffffffff021916908373ffffffffffffffffffffffffffffffffffffffff1602179055508173ffffffffffffffffffffffffffffffffffffffff168173ffffffffffffffffffffffffffffffffffffffff167f8be0079c531659141344cd1fd0a4f28419497f9722a3daafe3b4186f6b6457e060405160405180910390a35050565b828054620001b49062000285565b90600052602060002090601f016020900481019282620001d8576000855562000224565b82601f10620001f357805160ff191683800117855562000224565b8280016001018555821562000224579182015b828111156200022357825182559160200191906001019062000206565b5b50905062000233919062000237565b5090565b5b808211156200025257600081600090555060010162000238565b5090565b7f4e487b7100000000000000000000000000000000000000000000000000000000600052602260045260246000fd5b600060028204905060018216806200029e57607f821691505b60208210811415620002b557620002b462000256565b5b50919050565b612fe180620002cb6000396000f3fe608060405234801561001057600080fd5b50600436106101c45760003560e01c80638da5cb5b116100f9578063c6ae6e0511610097578063d5abeb0111610071578063d5abeb01146104f1578063d85d3d271461050f578063e985e9c51461052b578063f2fde38b1461055b576101c4565b8063c6ae6e0514610475578063c8001523146104a5578063c87b56dd146104c1576101c4565b8063a035b1fe116100d3578063a035b1fe14610401578063a19af1ad1461041f578063a22cb4651461043d578063b88d4fde14610459576101c4565b80638da5cb5b1461039557806395d89b41146103b35780639f452cb5146103d1576101c4565b806342842e0e11610166578063715018a611610140578063715018a614610333578063733403821461033d57806380c9419e1461035b578063824044e114610377576101c4565b806342842e0e146102b75780636352211e146102d357806370a0823114610303576101c4565b8063095ea7b3116101a2578063095ea7b3146102475780630ea412ab1461026357806323b872dd1461027f57806331b5b9071461029b576101c4565b806301ffc9a7146101c957806306fdde03146101f9578063081812fc14610217575b600080fd5b6101e360048036038101906101de919061203e565b610577565b6040516101f09190612086565b60405180910390f35b610201610659565b60405161020e919061213a565b60405180910390f35b610231600480360381019061022c9190612192565b6106eb565b60405161023e9190612200565b60405180910390f35b610261600480360381019061025c9190612247565b610731565b005b61027d60048036038101906102789190612192565b610849565b005b61029960048036038101906102949190612287565b61085b565b005b6102b560048036038101906102b0919061233f565b6108bb565b005b6102d160048036038101906102cc9190612287565b6108d1565b005b6102ed60048036038101906102e89190612192565b6108f1565b6040516102fa9190612200565b60405180910390f35b61031d6004803603810190610318919061238c565b610978565b60405161032a91906123c8565b60405180910390f35b61033b610a30565b005b610345610a44565b60405161035291906123c8565b60405180910390f35b61037560048036038101906103709190612192565b610a4e565b005b61037f610a5b565b60405161038c91906123c8565b60405180910390f35b61039d610a6c565b6040516103aa9190612200565b60405180910390f35b6103bb610a96565b6040516103c8919061213a565b60405180910390f35b6103eb60048036038101906103e69190612192565b610b28565b6040516103f8919061213a565b60405180910390f35b610409610bc8565b60405161041691906123c8565b60405180910390f35b610427610bce565b60405161043491906123c8565b60405180910390f35b6104576004803603810190610452919061240f565b610bd8565b005b610473600480360381019061046e919061257f565b610bee565b005b61048f600480360381019061048a9190612192565b610c50565b60405161049c919061213a565b60405180910390f35b6104bf60048036038101906104ba9190612192565b610cf5565b005b6104db60048036038101906104d69190612192565b610d07565b6040516104e8919061213a565b60405180910390f35b6104f9610d6f565b60405161050691906123c8565b60405180910390f35b610529600480360381019061052491906126a3565b610d75565b005b610545600480360381019061054091906126ec565b610dc3565b6040516105529190612086565b60405180910390f35b6105756004803603810190610570919061238c565b610e57565b005b60007f80ac58cd000000000000000000000000000000000000000000000000000000007bffffffffffffffffffffffffffffffffffffffffffffffffffffffff1916827bffffffffffffffffffffffffffffffffffffffffffffffffffffffff1916148061064257507f5b5e139f000000000000000000000000000000000000000000000000000000007bffffffffffffffffffffffffffffffffffffffffffffffffffffffff1916827bffffffffffffffffffffffffffffffffffffffffffffffffffffffff1916145b80610652575061065182610edb565b5b9050919050565b6060600080546106689061275b565b80601f01602080910402602001604051908101604052809291908181526020018280546106949061275b565b80156106e15780601f106106b6576101008083540402835291602001916106e1565b820191906000526020600020905b8154815290600101906020018083116106c457829003601f168201915b5050505050905090565b60006106f682610f45565b6004600083815260200190815260200160002060009054906101000a900473ffffffffffffffffffffffffffffffffffffffff169050919050565b600061073c826108f1565b90508073ffffffffffffffffffffffffffffffffffffffff168373ffffffffffffffffffffffffffffffffffffffff1614156107ad576040517f08c379a00000000000000000000000000000000000000000000000000000000081526004016107a4906127ff565b60405180910390fd5b8073ffffffffffffffffffffffffffffffffffffffff166107cc610f90565b73ffffffffffffffffffffffffffffffffffffffff1614806107fb57506107fa816107f5610f90565b610dc3565b5b61083a576040517f08c379a000000000000000000000000000000000000000000000000000000000815260040161083190612891565b60405180910390fd5b6108448383610f98565b505050565b610851611051565b8060078190555050565b61086c610866610f90565b826110cf565b6108ab576040517f08c379a00000000000000000000000000000000000000000000000000000000081526004016108a290612923565b60405180910390fd5b6108b6838383611164565b505050565b8181600991906108cc929190611ea9565b505050565b6108ec83838360405180602001604052806000815250610bee565b505050565b6000806108fd8361145e565b9050600073ffffffffffffffffffffffffffffffffffffffff168173ffffffffffffffffffffffffffffffffffffffff16141561096f576040517f08c379a00000000000000000000000000000000000000000000000000000000081526004016109669061298f565b60405180910390fd5b80915050919050565b60008073ffffffffffffffffffffffffffffffffffffffff168273ffffffffffffffffffffffffffffffffffffffff1614156109e9576040517f08c379a00000000000000000000000000000000000000000000000000000000081526004016109e090612a21565b60405180910390fd5b600360008373ffffffffffffffffffffffffffffffffffffffff1673ffffffffffffffffffffffffffffffffffffffff168152602001908152602001600020549050919050565b610a38611051565b610a42600061149b565b565b6000600854905090565b610a583082610731565b50565b6000610a67600a611561565b905090565b6000600660009054906101000a900473ffffffffffffffffffffffffffffffffffffffff16905090565b606060018054610aa59061275b565b80601f0160208091040260200160405190810160405280929190818152602001828054610ad19061275b565b8015610b1e5780601f10610af357610100808354040283529160200191610b1e565b820191906000526020600020905b815481529060010190602001808311610b0157829003601f168201915b5050505050905090565b600b6020528060005260406000206000915090508054610b479061275b565b80601f0160208091040260200160405190810160405280929190818152602001828054610b739061275b565b8015610bc05780601f10610b9557610100808354040283529160200191610bc0565b820191906000526020600020905b815481529060010190602001808311610ba357829003601f168201915b505050505081565b60075481565b6000600754905090565b610bea610be3610f90565b838361156f565b5050565b610bff610bf9610f90565b836110cf565b610c3e576040517f08c379a0000000000000000000000000000000000000000000000000000000008152600401610c3590612923565b60405180910390fd5b610c4a848484846116dc565b50505050565b6060600b60008381526020019081526020016000208054610c709061275b565b80601f0160208091040260200160405190810160405280929190818152602001828054610c9c9061275b565b8015610ce95780601f10610cbe57610100808354040283529160200191610ce9565b820191906000526020600020905b815481529060010190602001808311610ccc57829003601f168201915b50505050509050919050565b610cfd611051565b8060088190555050565b6060610d1282610f45565b6000610d1c611738565b90506000815111610d3c5760405180602001604052806000815250610d67565b80610d46846117ca565b604051602001610d57929190612a7d565b6040516020818303038152906040525b915050919050565b60085481565b610d7f600a6118a2565b6000610d8b600a611561565b905081600b60008381526020019081526020016000209080519060200190610db4929190611f2f565b50610dbf33826118b8565b5050565b6000600560008473ffffffffffffffffffffffffffffffffffffffff1673ffffffffffffffffffffffffffffffffffffffff16815260200190815260200160002060008373ffffffffffffffffffffffffffffffffffffffff1673ffffffffffffffffffffffffffffffffffffffff16815260200190815260200160002060009054906101000a900460ff16905092915050565b610e5f611051565b600073ffffffffffffffffffffffffffffffffffffffff168173ffffffffffffffffffffffffffffffffffffffff161415610ecf576040517f08c379a0000000000000000000000000000000000000000000000000000000008152600401610ec690612b13565b60405180910390fd5b610ed88161149b565b50565b60007f01ffc9a7000000000000000000000000000000000000000000000000000000007bffffffffffffffffffffffffffffffffffffffffffffffffffffffff1916827bffffffffffffffffffffffffffffffffffffffffffffffffffffffff1916149050919050565b610f4e816118d6565b610f8d576040517f08c379a0000000000000000000000000000000000000000000000000000000008152600401610f849061298f565b60405180910390fd5b50565b600033905090565b816004600083815260200190815260200160002060006101000a81548173ffffffffffffffffffffffffffffffffffffffff021916908373ffffffffffffffffffffffffffffffffffffffff160217905550808273ffffffffffffffffffffffffffffffffffffffff1661100b836108f1565b73ffffffffffffffffffffffffffffffffffffffff167f8c5be1e5ebec7d5bd14f71427d1e84f3dd0314c0f7b2291e5b200ac8c7c3b92560405160405180910390a45050565b611059610f90565b73ffffffffffffffffffffffffffffffffffffffff16611077610a6c565b73ffffffffffffffffffffffffffffffffffffffff16146110cd576040517f08c379a00000000000000000000000000000000000000000000000000000000081526004016110c490612b7f565b60405180910390fd5b565b6000806110db836108f1565b90508073ffffffffffffffffffffffffffffffffffffffff168473ffffffffffffffffffffffffffffffffffffffff16148061111d575061111c8185610dc3565b5b8061115b57508373ffffffffffffffffffffffffffffffffffffffff16611143846106eb565b73ffffffffffffffffffffffffffffffffffffffff16145b91505092915050565b8273ffffffffffffffffffffffffffffffffffffffff16611184826108f1565b73ffffffffffffffffffffffffffffffffffffffff16146111da576040517f08c379a00000000000000000000000000000000000000000000000000000000081526004016111d190612c11565b60405180910390fd5b600073ffffffffffffffffffffffffffffffffffffffff168273ffffffffffffffffffffffffffffffffffffffff16141561124a576040517f08c379a000000000000000000000000000000000000000000000000000000000815260040161124190612ca3565b60405180910390fd5b6112578383836001611917565b8273ffffffffffffffffffffffffffffffffffffffff16611277826108f1565b73ffffffffffffffffffffffffffffffffffffffff16146112cd576040517f08c379a00000000000000000000000000000000000000000000000000000000081526004016112c490612c11565b60405180910390fd5b6004600082815260200190815260200160002060006101000a81549073ffffffffffffffffffffffffffffffffffffffff02191690556001600360008573ffffffffffffffffffffffffffffffffffffffff1673ffffffffffffffffffffffffffffffffffffffff168152602001908152602001600020600082825403925050819055506001600360008473ffffffffffffffffffffffffffffffffffffffff1673ffffffffffffffffffffffffffffffffffffffff16815260200190815260200160002060008282540192505081905550816002600083815260200190815260200160002060006101000a81548173ffffffffffffffffffffffffffffffffffffffff021916908373ffffffffffffffffffffffffffffffffffffffff160217905550808273ffffffffffffffffffffffffffffffffffffffff168473ffffffffffffffffffffffffffffffffffffffff167fddf252ad1be2c89b69c2b068fc378daa952ba7f163c4a11628f55a4df523b3ef60405160405180910390a4611459838383600161191d565b505050565b60006002600083815260200190815260200160002060009054906101000a900473ffffffffffffffffffffffffffffffffffffffff169050919050565b6000600660009054906101000a900473ffffffffffffffffffffffffffffffffffffffff16905081600660006101000a81548173ffffffffffffffffffffffffffffffffffffffff021916908373ffffffffffffffffffffffffffffffffffffffff1602179055508173ffffffffffffffffffffffffffffffffffffffff168173ffffffffffffffffffffffffffffffffffffffff167f8be0079c531659141344cd1fd0a4f28419497f9722a3daafe3b4186f6b6457e060405160405180910390a35050565b600081600001549050919050565b8173ffffffffffffffffffffffffffffffffffffffff168373ffffffffffffffffffffffffffffffffffffffff1614156115de576040517f08c379a00000000000000000000000000000000000000000000000000000000081526004016115d590612d0f565b60405180910390fd5b80600560008573ffffffffffffffffffffffffffffffffffffffff1673ffffffffffffffffffffffffffffffffffffffff16815260200190815260200160002060008473ffffffffffffffffffffffffffffffffffffffff1673ffffffffffffffffffffffffffffffffffffffff16815260200190815260200160002060006101000a81548160ff0219169083151502179055508173ffffffffffffffffffffffffffffffffffffffff168373ffffffffffffffffffffffffffffffffffffffff167f17307eab39ab6107e8899845ad3d59bd9653f200f220920489ca2b5937696c31836040516116cf9190612086565b60405180910390a3505050565b6116e7848484611164565b6116f384848484611923565b611732576040517f08c379a000000000000000000000000000000000000000000000000000000000815260040161172990612da1565b60405180910390fd5b50505050565b6060600980546117479061275b565b80601f01602080910402602001604051908101604052809291908181526020018280546117739061275b565b80156117c05780601f10611795576101008083540402835291602001916117c0565b820191906000526020600020905b8154815290600101906020018083116117a357829003601f168201915b5050505050905090565b6060600060016117d984611aba565b01905060008167ffffffffffffffff8111156117f8576117f7612454565b5b6040519080825280601f01601f19166020018201604052801561182a5781602001600182028036833780820191505090505b509050600082602001820190505b600115611897578080600190039150507f3031323334353637383961626364656600000000000000000000000000000000600a86061a8153600a858161188157611880612dc1565b5b049450600085141561189257611897565b611838565b819350505050919050565b6001816000016000828254019250508190555050565b6118d2828260405180602001604052806000815250611c0d565b5050565b60008073ffffffffffffffffffffffffffffffffffffffff166118f88361145e565b73ffffffffffffffffffffffffffffffffffffffff1614159050919050565b50505050565b50505050565b60006119448473ffffffffffffffffffffffffffffffffffffffff16611c68565b15611aad578373ffffffffffffffffffffffffffffffffffffffff1663150b7a0261196d610f90565b8786866040518563ffffffff1660e01b815260040161198f9493929190612e45565b602060405180830381600087803b1580156119a957600080fd5b505af19250505080156119da57506040513d601f19601f820116820180604052508101906119d79190612ea6565b60015b611a5d573d8060008114611a0a576040519150601f19603f3d011682016040523d82523d6000602084013e611a0f565b606091505b50600081511415611a55576040517f08c379a0000000000000000000000000000000000000000000000000000000008152600401611a4c90612da1565b60405180910390fd5b805181602001fd5b63150b7a0260e01b7bffffffffffffffffffffffffffffffffffffffffffffffffffffffff1916817bffffffffffffffffffffffffffffffffffffffffffffffffffffffff191614915050611ab2565b600190505b949350505050565b600080600090507a184f03e93ff9f4daa797ed6e38ed64bf6a1f0100000000000000008310611b18577a184f03e93ff9f4daa797ed6e38ed64bf6a1f0100000000000000008381611b0e57611b0d612dc1565b5b0492506040810190505b6d04ee2d6d415b85acef81000000008310611b55576d04ee2d6d415b85acef81000000008381611b4b57611b4a612dc1565b5b0492506020810190505b662386f26fc100008310611b8457662386f26fc100008381611b7a57611b79612dc1565b5b0492506010810190505b6305f5e1008310611bad576305f5e1008381611ba357611ba2612dc1565b5b0492506008810190505b6127108310611bd2576127108381611bc857611bc7612dc1565b5b0492506004810190505b60648310611bf55760648381611beb57611bea612dc1565b5b0492506002810190505b600a8310611c04576001810190505b80915050919050565b611c178383611c8b565b611c246000848484611923565b611c63576040517f08c379a0000000000000000000000000000000000000000000000000000000008152600401611c5a90612da1565b60405180910390fd5b505050565b6000808273ffffffffffffffffffffffffffffffffffffffff163b119050919050565b600073ffffffffffffffffffffffffffffffffffffffff168273ffffffffffffffffffffffffffffffffffffffff161415611cfb576040517f08c379a0000000000000000000000000000000000000000000000000000000008152600401611cf290612f1f565b60405180910390fd5b611d04816118d6565b15611d44576040517f08c379a0000000000000000000000000000000000000000000000000000000008152600401611d3b90612f8b565b60405180910390fd5b611d52600083836001611917565b611d5b816118d6565b15611d9b576040517f08c379a0000000000000000000000000000000000000000000000000000000008152600401611d9290612f8b565b60405180910390fd5b6001600360008473ffffffffffffffffffffffffffffffffffffffff1673ffffffffffffffffffffffffffffffffffffffff16815260200190815260200160002060008282540192505081905550816002600083815260200190815260200160002060006101000a81548173ffffffffffffffffffffffffffffffffffffffff021916908373ffffffffffffffffffffffffffffffffffffffff160217905550808273ffffffffffffffffffffffffffffffffffffffff16600073ffffffffffffffffffffffffffffffffffffffff167fddf252ad1be2c89b69c2b068fc378daa952ba7f163c4a11628f55a4df523b3ef60405160405180910390a4611ea560008383600161191d565b5050565b828054611eb59061275b565b90600052602060002090601f016020900481019282611ed75760008555611f1e565b82601f10611ef057803560ff1916838001178555611f1e565b82800160010185558215611f1e579182015b82811115611f1d578235825591602001919060010190611f02565b5b509050611f2b9190611fb5565b5090565b828054611f3b9061275b565b90600052602060002090601f016020900481019282611f5d5760008555611fa4565b82601f10611f7657805160ff1916838001178555611fa4565b82800160010185558215611fa4579182015b82811115611fa3578251825591602001919060010190611f88565b5b509050611fb19190611fb5565b5090565b5b80821115611fce576000816000905550600101611fb6565b5090565b6000604051905090565b600080fd5b600080fd5b60007fffffffff0000000000000000000000000000000000000000000000000000000082169050919050565b61201b81611fe6565b811461202657600080fd5b50565b60008135905061203881612012565b92915050565b60006020828403121561205457612053611fdc565b5b600061206284828501612029565b91505092915050565b60008115159050919050565b6120808161206b565b82525050565b600060208201905061209b6000830184612077565b92915050565b600081519050919050565b600082825260208201905092915050565b60005b838110156120db5780820151818401526020810190506120c0565b838111156120ea576000848401525b50505050565b6000601f19601f8301169050919050565b600061210c826120a1565b61211681856120ac565b93506121268185602086016120bd565b61212f816120f0565b840191505092915050565b600060208201905081810360008301526121548184612101565b905092915050565b6000819050919050565b61216f8161215c565b811461217a57600080fd5b50565b60008135905061218c81612166565b92915050565b6000602082840312156121a8576121a7611fdc565b5b60006121b68482850161217d565b91505092915050565b600073ffffffffffffffffffffffffffffffffffffffff82169050919050565b60006121ea826121bf565b9050919050565b6121fa816121df565b82525050565b600060208201905061221560008301846121f1565b92915050565b612224816121df565b811461222f57600080fd5b50565b6000813590506122418161221b565b92915050565b6000806040838503121561225e5761225d611fdc565b5b600061226c85828601612232565b925050602061227d8582860161217d565b9150509250929050565b6000806000606084860312156122a05761229f611fdc565b5b60006122ae86828701612232565b93505060206122bf86828701612232565b92505060406122d08682870161217d565b9150509250925092565b600080fd5b600080fd5b600080fd5b60008083601f8401126122ff576122fe6122da565b5b8235905067ffffffffffffffff81111561231c5761231b6122df565b5b602083019150836001820283011115612338576123376122e4565b5b9250929050565b6000806020838503121561235657612355611fdc565b5b600083013567ffffffffffffffff81111561237457612373611fe1565b5b612380858286016122e9565b92509250509250929050565b6000602082840312156123a2576123a1611fdc565b5b60006123b084828501612232565b91505092915050565b6123c28161215c565b82525050565b60006020820190506123dd60008301846123b9565b92915050565b6123ec8161206b565b81146123f757600080fd5b50565b600081359050612409816123e3565b92915050565b6000806040838503121561242657612425611fdc565b5b600061243485828601612232565b9250506020612445858286016123fa565b9150509250929050565b600080fd5b7f4e487b7100000000000000000000000000000000000000000000000000000000600052604160045260246000fd5b61248c826120f0565b810181811067ffffffffffffffff821117156124ab576124aa612454565b5b80604052505050565b60006124be611fd2565b90506124ca8282612483565b919050565b600067ffffffffffffffff8211156124ea576124e9612454565b5b6124f3826120f0565b9050602081019050919050565b82818337600083830152505050565b600061252261251d846124cf565b6124b4565b90508281526020810184848401111561253e5761253d61244f565b5b612549848285612500565b509392505050565b600082601f830112612566576125656122da565b5b813561257684826020860161250f565b91505092915050565b6000806000806080858703121561259957612598611fdc565b5b60006125a787828801612232565b94505060206125b887828801612232565b93505060406125c98782880161217d565b925050606085013567ffffffffffffffff8111156125ea576125e9611fe1565b5b6125f687828801612551565b91505092959194509250565b600067ffffffffffffffff82111561261d5761261c612454565b5b612626826120f0565b9050602081019050919050565b600061264661264184612602565b6124b4565b9050828152602081018484840111156126625761266161244f565b5b61266d848285612500565b509392505050565b600082601f83011261268a576126896122da565b5b813561269a848260208601612633565b91505092915050565b6000602082840312156126b9576126b8611fdc565b5b600082013567ffffffffffffffff8111156126d7576126d6611fe1565b5b6126e384828501612675565b91505092915050565b6000806040838503121561270357612702611fdc565b5b600061271185828601612232565b925050602061272285828601612232565b9150509250929050565b7f4e487b7100000000000000000000000000000000000000000000000000000000600052602260045260246000fd5b6000600282049050600182168061277357607f821691505b602082108114156127875761278661272c565b5b50919050565b7f4552433732313a20617070726f76616c20746f2063757272656e74206f776e6560008201527f7200000000000000000000000000000000000000000000000000000000000000602082015250565b60006127e96021836120ac565b91506127f48261278d565b604082019050919050565b60006020820190508181036000830152612818816127dc565b9050919050565b7f4552433732313a20617070726f76652063616c6c6572206973206e6f7420746f60008201527f6b656e206f776e6572206f7220617070726f76656420666f7220616c6c000000602082015250565b600061287b603d836120ac565b91506128868261281f565b604082019050919050565b600060208201905081810360008301526128aa8161286e565b9050919050565b7f4552433732313a2063616c6c6572206973206e6f7420746f6b656e206f776e6560008201527f72206f7220617070726f76656400000000000000000000000000000000000000602082015250565b600061290d602d836120ac565b9150612918826128b1565b604082019050919050565b6000602082019050818103600083015261293c81612900565b9050919050565b7f4552433732313a20696e76616c696420746f6b656e2049440000000000000000600082015250565b60006129796018836120ac565b915061298482612943565b602082019050919050565b600060208201905081810360008301526129a88161296c565b9050919050565b7f4552433732313a2061646472657373207a65726f206973206e6f74206120766160008201527f6c6964206f776e65720000000000000000000000000000000000000000000000602082015250565b6000612a0b6029836120ac565b9150612a16826129af565b604082019050919050565b60006020820190508181036000830152612a3a816129fe565b9050919050565b600081905092915050565b6000612a57826120a1565b612a618185612a41565b9350612a718185602086016120bd565b80840191505092915050565b6000612a898285612a4c565b9150612a958284612a4c565b91508190509392505050565b7f4f776e61626c653a206e6577206f776e657220697320746865207a65726f206160008201527f6464726573730000000000000000000000000000000000000000000000000000602082015250565b6000612afd6026836120ac565b9150612b0882612aa1565b604082019050919050565b60006020820190508181036000830152612b2c81612af0565b9050919050565b7f4f776e61626c653a2063616c6c6572206973206e6f7420746865206f776e6572600082015250565b6000612b696020836120ac565b9150612b7482612b33565b602082019050919050565b60006020820190508181036000830152612b9881612b5c565b9050919050565b7f4552433732313a207472616e736665722066726f6d20696e636f72726563742060008201527f6f776e6572000000000000000000000000000000000000000000000000000000602082015250565b6000612bfb6025836120ac565b9150612c0682612b9f565b604082019050919050565b60006020820190508181036000830152612c2a81612bee565b9050919050565b7f4552433732313a207472616e7366657220746f20746865207a65726f2061646460008201527f7265737300000000000000000000000000000000000000000000000000000000602082015250565b6000612c8d6024836120ac565b9150612c9882612c31565b604082019050919050565b60006020820190508181036000830152612cbc81612c80565b9050919050565b7f4552433732313a20617070726f766520746f2063616c6c657200000000000000600082015250565b6000612cf96019836120ac565b9150612d0482612cc3565b602082019050919050565b60006020820190508181036000830152612d2881612cec565b9050919050565b7f4552433732313a207472616e7366657220746f206e6f6e20455243373231526560008201527f63656976657220696d706c656d656e7465720000000000000000000000000000602082015250565b6000612d8b6032836120ac565b9150612d9682612d2f565b604082019050919050565b60006020820190508181036000830152612dba81612d7e565b9050919050565b7f4e487b7100000000000000000000000000000000000000000000000000000000600052601260045260246000fd5b600081519050919050565b600082825260208201905092915050565b6000612e1782612df0565b612e218185612dfb565b9350612e318185602086016120bd565b612e3a816120f0565b840191505092915050565b6000608082019050612e5a60008301876121f1565b612e6760208301866121f1565b612e7460408301856123b9565b8181036060830152612e868184612e0c565b905095945050505050565b600081519050612ea081612012565b92915050565b600060208284031215612ebc57612ebb611fdc565b5b6000612eca84828501612e91565b91505092915050565b7f4552433732313a206d696e7420746f20746865207a65726f2061646472657373600082015250565b6000612f096020836120ac565b9150612f1482612ed3565b602082019050919050565b60006020820190508181036000830152612f3881612efc565b9050919050565b7f4552433732313a20746f6b656e20616c7265616479206d696e74656400000000600082015250565b6000612f75601c836120ac565b9150612f8082612f3f565b602082019050919050565b60006020820190508181036000830152612fa481612f68565b905091905056fea2646970667358221220b4d5abef978e7acac0e8509d94c01288d0cf8f17b8cdb88b153368792b4f708964736f6c63430008090033",
  "linkReferences": {},
  "deployedLinkReferences": {}
}